{
	"_blockHeight": 10347287,
	"blockHash": "0x5f08ba3c5b6141f4f5e82f7fa3e51d732ab61ee4e84544cdf2883400edefc1fb",
	"blockNumber": "0x9de317",
	"chainId": "0x1",
	"condition": null,
	"creates": null,
	"from": "0xac1a0f50604c430c25a9fa52078f7f7ec9523519",
	"gas": "0x6d60",
	"gasPrice": "0xa7a358200",
	"hash": "0xf6ad7f16653a2070f36c5f9c243acb30109da76658b54712745136d8e8236eae",
	"input": "0x",
	"nonce": "0xb5",
	"publicKey": "0x29117852d39ea24dd96b7dd03084b4cd6c1abe7b5f31d27aadacb2adc325e1e2df7ab0d83e53ca5088e8c762c749e3f5408f83cf97530d5b3f516f65bad7517b",
	"r": "0x73320ee4b9e2cb9bbba494f79cb6942c7289fca30d408864e50e0042d3aee98d",
	"raw": "0xf86d81b5850a7a358200826d6094b5663d3a23706eb4537ffea78f56948a53ac2ebe888ac7230489e800008025a073320ee4b9e2cb9bbba494f79cb6942c7289fca30d408864e50e0042d3aee98da0242ab056efb2943c8265edb5a2b5401d677043d2a979efd5643e0cbc39b7ba19",
	"s": "0x242ab056efb2943c8265edb5a2b5401d677043d2a979efd5643e0cbc39b7ba19",
	"standardV": "0x0",
	"to": "0xb5663d3a23706eb4537ffea78f56948a53ac2ebe",
	"transactionIndex": "0x21",
	"v": "0x25",
	"value": "0x8ac7230489e80000"
}
