[
	{
		"_blockHeight": 10347287,
		"blockHash": "0x5f08ba3c5b6141f4f5e82f7fa3e51d732ab61ee4e84544cdf2883400edefc1fb",
		"blockNumber": "0x9de317",
		"chainId": "0x1",
		"condition": null,
		"creates": null,
		"from": "0xac1a0f50604c430c25a9fa52078f7f7ec9523519",
		"gas": "0x6d60",
		"gasPrice": "0xa7a358200",
		"hash": "0xf6ad7f16653a2070f36c5f9c243acb30109da76658b54712745136d8e8236eae",
		"input": "0x",
		"nonce": "0xb5",
		"publicKey": "0x29117852d39ea24dd96b7dd03084b4cd6c1abe7b5f31d27aadacb2adc325e1e2df7ab0d83e53ca5088e8c762c749e3f5408f83cf97530d5b3f516f65bad7517b",
		"r": "0x73320ee4b9e2cb9bbba494f79cb6942c7289fca30d408864e50e0042d3aee98d",
		"raw": "0xf86d81b5850a7a358200826d6094b5663d3a23706eb4537ffea78f56948a53ac2ebe888ac7230489e800008025a073320ee4b9e2cb9bbba494f79cb6942c7289fca30d408864e50e0042d3aee98da0242ab056efb2943c8265edb5a2b5401d677043d2a979efd5643e0cbc39b7ba19",
		"s": "0x242ab056efb2943c8265edb5a2b5401d677043d2a979efd5643e0cbc39b7ba19",
		"standardV": "0x0",
		"to": "0xb5663d3a23706eb4537ffea78f56948a53ac2ebe",
		"transactionIndex": "0x21",
		"v": "0x25",
		"value": "0x8ac7230489e80000"
	},
	{
		"_blockHeight": 10347291,
		"blockHash": "0x304af03d015bbb2ad579f73071f18eb204cd608c830d5838641a3e6265c3c63b",
		"blockNumber": "0x9de31b",
		"chainId": "0x1",
		"condition": null,
		"creates": null,
		"from": "0xac1a0f50604c430c25a9fa52078f7f7ec9523519",
		"gas": "0x6d60",
		"gasPrice": "0xa7a358200",
		"hash": "0xc494ec53674ef409c14dc709d82d43f858832bd1ef0bc44c752d8c75aa12dde3",
		"input": "0x",
		"nonce": "0xb6",
		"publicKey": "0x29117852d39ea24dd96b7dd03084b4cd6c1abe7b5f31d27aadacb2adc325e1e2df7ab0d83e53ca5088e8c762c749e3f5408f83cf97530d5b3f516f65bad7517b",
		"r": "0x60fea2663b45291db88f3abf8d056dd48b0f9162fd939b7d03d79800fdff4469",
		"raw": "0xf86e81b6850a7a358200826d6094b5663d3a23706eb4537ffea78f56948a53ac2ebe8901158e460913d000008025a060fea2663b45291db88f3abf8d056dd48b0f9162fd939b7d03d79800fdff4469a05814b99311b18a5f4a0302a4fe56f10a9788f918dc9dc5fc7676b43ee827917e",
		"s": "0x5814b99311b18a5f4a0302a4fe56f10a9788f918dc9dc5fc7676b43ee827917e",
		"standardV": "0x0",
		"to": "0xb5663d3a23706eb4537ffea78f56948a53ac2ebe",
		"transactionIndex": "0x22",
		"v": "0x25",
		"value": "0x1158e460913d00000"
	},
	{
		"_blockHeight": 10347268,
		"blockHash": "0x76d8b5aaa7d93636ee81bcb009bf9e9f4b3f2b639f60e519b257f50bccaa21ea",
		"blockNumber": "0x9de304",
		"chainId": "0x1",
		"condition": null,
		"creates": null,
		"from": "0xac1a0f50604c430c25a9fa52078f7f7ec9523519",
		"gas": "0x6d60",
		"gasPrice": "0xa7a358200",
		"hash": "0x702c70df607c1e3addf2cb8bb76c7182eec555befe54f03a33af2a1d540b813c",
		"input": "0x",
		"nonce": "0xb0",
		"publicKey": "0x29117852d39ea24dd96b7dd03084b4cd6c1abe7b5f31d27aadacb2adc325e1e2df7ab0d83e53ca5088e8c762c749e3f5408f83cf97530d5b3f516f65bad7517b",
		"r": "0x7e0fdf0b5a8268b8ec52d80d2c34e9c19465c062f2997e6a1f4bb3509e9a12e",
		"raw": "0xf86d81b0850a7a358200826d6094b5663d3a23706eb4537ffea78f56948a53ac2ebe880de0b6b3a76400008025a007e0fdf0b5a8268b8ec52d80d2c34e9c19465c062f2997e6a1f4bb3509e9a12ea05d837ff0b3cf7d35bab250706f12e360028817422376bc8093e49d4d39dbccc3",
		"s": "0x5d837ff0b3cf7d35bab250706f12e360028817422376bc8093e49d4d39dbccc3",
		"standardV": "0x0",
		"to": "0xb5663d3a23706eb4537ffea78f56948a53ac2ebe",
		"transactionIndex": "0x11",
		"v": "0x25",
		"value": "0xde0b6b3a7640000"
	},
	{
		"_blockHeight": 10347268,
		"blockHash": "0x76d8b5aaa7d93636ee81bcb009bf9e9f4b3f2b639f60e519b257f50bccaa21ea",
		"blockNumber": "0x9de304",
		"chainId": "0x1",
		"condition": null,
		"creates": null,
		"from": "0xac1a0f50604c430c25a9fa52078f7f7ec9523519",
		"gas": "0x5208",
		"gasPrice": "0x684ee1800",
		"hash": "0x37c3093f9acac2a31cae0f868d67d243f087aa59ed3295a9c6a9b13024552594",
		"input": "0x",
		"nonce": "0xb2",
		"publicKey": "0x29117852d39ea24dd96b7dd03084b4cd6c1abe7b5f31d27aadacb2adc325e1e2df7ab0d83e53ca5088e8c762c749e3f5408f83cf97530d5b3f516f65bad7517b",
		"r": "0xd79a3d7560f653122fa4dbae155ca7326b41fd68cabfce4fc467295bf890a249",
		"raw": "0xf86d81b2850684ee180082520894b5663d3a23706eb4537ffea78f56948a53ac2ebe880de0b6b3a76400008026a0d79a3d7560f653122fa4dbae155ca7326b41fd68cabfce4fc467295bf890a249a0798bd99cc926b5a45aba00dc6a79f282bfd3c6e635b1bc2585084aa6cdbaed77",
		"s": "0x798bd99cc926b5a45aba00dc6a79f282bfd3c6e635b1bc2585084aa6cdbaed77",
		"standardV": "0x1",
		"to": "0xb5663d3a23706eb4537ffea78f56948a53ac2ebe",
		"transactionIndex": "0x5d",
		"v": "0x26",
		"value": "0xde0b6b3a7640000"
	},
	{
		"_blockHeight": 10347269,
		"blockHash": "0xe43c3601be49524e5070d676242212225b2a3cb6bc3cd8a0cbeba70a6e1aa483",
		"blockNumber": "0x9de305",
		"chainId": "0x1",
		"condition": null,
		"creates": null,
		"from": "0xac1a0f50604c430c25a9fa52078f7f7ec9523519",
		"gas": "0x6d60",
		"gasPrice": "0xa7a358200",
		"hash": "0x5a124b0cf1c53cf95724910d922a5e9e60a2224cca6c130dc575aeac3a397faf",
		"input": "0x",
		"nonce": "0xb3",
		"publicKey": "0x29117852d39ea24dd96b7dd03084b4cd6c1abe7b5f31d27aadacb2adc325e1e2df7ab0d83e53ca5088e8c762c749e3f5408f83cf97530d5b3f516f65bad7517b",
		"r": "0xe4268f96c45ebceb6c9802402853b67674c4ba7bb8c003e2cfcd733f7649f3df",
		"raw": "0xf86d81b3850a7a358200826d6094b5663d3a23706eb4537ffea78f56948a53ac2ebe880de0b6b3a76400008025a0e4268f96c45ebceb6c9802402853b67674c4ba7bb8c003e2cfcd733f7649f3dfa06ce84d35421a35280c37e028f5df9e4a6bae270b9b0b5c58f31e8f13238f476d",
		"s": "0x6ce84d35421a35280c37e028f5df9e4a6bae270b9b0b5c58f31e8f13238f476d",
		"standardV": "0x0",
		"to": "0xb5663d3a23706eb4537ffea78f56948a53ac2ebe",
		"transactionIndex": "0xf",
		"v": "0x25",
		"value": "0xde0b6b3a7640000"
	},
	{
		"_blockHeight": 10347307,
		"blockHash": "0x69a2704b5af5b3e15abe4fe8d4d0fcaf6a2a759c7c5d81da54f98776b3571d8c",
		"blockNumber": "0x9de32b",
		"chainId": "0x1",
		"condition": null,
		"creates": null,
		"from": "0xac1a0f50604c430c25a9fa52078f7f7ec9523519",
		"gas": "0x5208",
		"gasPrice": "0x5d21dba00",
		"hash": "0x8423e6a86df675b1928d68b33e5fea548aba7789a225eca7a88e8adaf467c1e0",
		"input": "0x",
		"nonce": "0xb9",
		"publicKey": "0x29117852d39ea24dd96b7dd03084b4cd6c1abe7b5f31d27aadacb2adc325e1e2df7ab0d83e53ca5088e8c762c749e3f5408f83cf97530d5b3f516f65bad7517b",
		"r": "0xa768418c5f8a201884d098257a3ecfcb624c99f90372351f59de1d8e71e64efc",
		"raw": "0xf86e81b98505d21dba0082520894b5663d3a23706eb4537ffea78f56948a53ac2ebe8901158e460913d000008026a0a768418c5f8a201884d098257a3ecfcb624c99f90372351f59de1d8e71e64efca071134ce37d683df6c01e3ffe1a40ac2b2ff5baf3182cbf7b2eedd35202c436f5",
		"s": "0x71134ce37d683df6c01e3ffe1a40ac2b2ff5baf3182cbf7b2eedd35202c436f5",
		"standardV": "0x1",
		"to": "0xb5663d3a23706eb4537ffea78f56948a53ac2ebe",
		"transactionIndex": "0xa5",
		"v": "0x26",
		"value": "0x1158e460913d00000"
	},
	{
		"_blockHeight": 10347315,
		"blockHash": "0xc05da39194c2c7f9caea1257131ea072fc841b25b44899bc1162945db6679a03",
		"blockNumber": "0x9de333",
		"chainId": "0x1",
		"condition": null,
		"creates": null,
		"from": "0xac1a0f50604c430c25a9fa52078f7f7ec9523519",
		"gas": "0x5208",
		"gasPrice": "0xa7a358200",
		"hash": "0x3c5b5f78d7b535ac7fc4061a6382cf33c5e1033a570ec33c378097b417d167bd",
		"input": "0x",
		"nonce": "0xbc",
		"publicKey": "0x29117852d39ea24dd96b7dd03084b4cd6c1abe7b5f31d27aadacb2adc325e1e2df7ab0d83e53ca5088e8c762c749e3f5408f83cf97530d5b3f516f65bad7517b",
		"r": "0x6847c4c59ce9140c5da871df1429f57b7a99515f5aac7f00d5b121b433ce100b",
		"raw": "0xf86d81bc850a7a35820082520894b5663d3a23706eb4537ffea78f56948a53ac2ebe883d04d346afddd6f78026a06847c4c59ce9140c5da871df1429f57b7a99515f5aac7f00d5b121b433ce100ba07cd0731196a167ff74a4e52cab8cae189615b79d708b36ab7f8cdc219b200bac",
		"s": "0x7cd0731196a167ff74a4e52cab8cae189615b79d708b36ab7f8cdc219b200bac",
		"standardV": "0x1",
		"to": "0xb5663d3a23706eb4537ffea78f56948a53ac2ebe",
		"transactionIndex": "0x32",
		"v": "0x26",
		"value": "0x3d04d346afddd6f7"
	},
	{
		"_blockHeight": 10347302,
		"blockHash": "0x2b75271809963729d2e5d85c16b613e77aa1861b3540385e55aa91757f6f96ef",
		"blockNumber": "0x9de326",
		"chainId": "0x1",
		"condition": null,
		"creates": null,
		"from": "0xac1a0f50604c430c25a9fa52078f7f7ec9523519",
		"gas": "0x5208",
		"gasPrice": "0x55ae82600",
		"hash": "0x45d7b3d6bf9cd386a64e4c87a9463c6ba58380da7f8ccca4b233e9a27788e3b2",
		"input": "0x",
		"nonce": "0xb8",
		"publicKey": "0x29117852d39ea24dd96b7dd03084b4cd6c1abe7b5f31d27aadacb2adc325e1e2df7ab0d83e53ca5088e8c762c749e3f5408f83cf97530d5b3f516f65bad7517b",
		"r": "0xf41394c27c368978a7233db0f3a31a36fccbcc17a9863d4354af5318c35e7580",
		"raw": "0xf86e81b885055ae8260082520894b5663d3a23706eb4537ffea78f56948a53ac2ebe8901158e460913d000008025a0f41394c27c368978a7233db0f3a31a36fccbcc17a9863d4354af5318c35e7580a041c4e2e5f68b72bad6205348b07f57c3917d8df525fddb626d3aa55cc09e2406",
		"s": "0x41c4e2e5f68b72bad6205348b07f57c3917d8df525fddb626d3aa55cc09e2406",
		"standardV": "0x0",
		"to": "0xb5663d3a23706eb4537ffea78f56948a53ac2ebe",
		"transactionIndex": "0x69",
		"v": "0x25",
		"value": "0x1158e460913d00000"
	},
	{
		"_blockHeight": 10360707,
		"blockHash": "0x4e978fe6d693f5af8a387ef7f2b74b4dd606b5b6b87c1718e96bf0c3f659227f",
		"blockNumber": "0x9e1783",
		"chainId": "0x1",
		"condition": null,
		"creates": null,
		"from": "0x3fab6d318a72e162477f05ee68cd13c785b5cd03",
		"gas": "0x5208",
		"gasPrice": "0x8bb2c9700",
		"hash": "0x94af7a67def960137f2dbf0e397b2b441c3e527f3802d591afdba7a4a96e2519",
		"input": "0x",
		"nonce": "0x3",
		"publicKey": "0xcb71c439b240a974bea7883b7413f0aab04f27130335b583a6363f90379f6f1104d7528174b07357bf36ab81b669a339ab79bc4eac418425d707e39b74fe0ec2",
		"r": "0xd0da34c879a1ba8cf0d0f6820278701aab07486d245c3f7d92aff987826b96b4",
		"raw": "0xf86c038508bb2c970082520894b5663d3a23706eb4537ffea78f56948a53ac2ebe8812898f391fb620008025a0d0da34c879a1ba8cf0d0f6820278701aab07486d245c3f7d92aff987826b96b4a06eae3f80baa24bae254d49fd5540c1bbca4bc66eea0b2c69f58248e455a57bb2",
		"s": "0x6eae3f80baa24bae254d49fd5540c1bbca4bc66eea0b2c69f58248e455a57bb2",
		"standardV": "0x0",
		"to": "0xb5663d3a23706eb4537ffea78f56948a53ac2ebe",
		"transactionIndex": "0x9a",
		"v": "0x25",
		"value": "0x12898f391fb62000"
	},
	{
		"_blockHeight": 10360735,
		"blockHash": "0xf9b14f9192714bf3da1c62bf6ee959df42f870e09422311c767e859f2898da49",
		"blockNumber": "0x9e179f",
		"chainId": "0x1",
		"condition": null,
		"creates": null,
		"from": "0xe31a4e39d84a0ca575f36f3ce92918d88d3c3573",
		"gas": "0x5208",
		"gasPrice": "0x99ab10c80",
		"hash": "0xc38d8cc7c7a61bdc064eb2a503d4a79dbbd6078af586d78667cc55a40e6bce84",
		"input": "0x",
		"nonce": "0x1",
		"publicKey": "0xc85678a826eb6f45e62dc44a70f4557d75ef11c5f28b490eae9ac12e96a6756e111e05e52319d374972651ba2109f3a374943510cd9d5e89fb8225ab30c41cbe",
		"r": "0x2c66580c5f24533336b6c50299baa8a9a32e6ce6282f7d1ef92510c7bc690917",
		"raw": "0xf86c0185099ab10c8082520894b5663d3a23706eb4537ffea78f56948a53ac2ebe883e70224ee5b89c008025a02c66580c5f24533336b6c50299baa8a9a32e6ce6282f7d1ef92510c7bc690917a06a8024b6ad3120321780d9aa161e2c031bb0844e124577107fa8d685607a4aca",
		"s": "0x6a8024b6ad3120321780d9aa161e2c031bb0844e124577107fa8d685607a4aca",
		"standardV": "0x0",
		"to": "0xb5663d3a23706eb4537ffea78f56948a53ac2ebe",
		"transactionIndex": "0x28",
		"v": "0x25",
		"value": "0x3e70224ee5b89c00"
	}
]
